{
    "_format": "hh-sol-artifact-1",
    "contractName": "Transactions",
    "sourceName": "contracts/Transactions.sol",
    "abi": [
        {
            "anonymous": false,
            "inputs": [
                {
                    "indexed": false,
                    "internalType": "address",
                    "name": "from",
                    "type": "address"
                },
                {
                    "indexed": false,
                    "internalType": "address",
                    "name": "receiver",
                    "type": "address"
                },
                {
                    "indexed": false,
                    "internalType": "uint256",
                    "name": "amount",
                    "type": "uint256"
                },
                {
                    "indexed": false,
                    "internalType": "string",
                    "name": "message",
                    "type": "string"
                },
                {
                    "indexed": false,
                    "internalType": "uint256",
                    "name": "timestamp",
                    "type": "uint256"
                },
                {
                    "indexed": false,
                    "internalType": "string",
                    "name": "keyword",
                    "type": "string"
                }
            ],
            "name": "Transfer",
            "type": "event"
        },
        {
            "inputs": [
                {
                    "internalType": "address payable",
                    "name": "receiver",
                    "type": "address"
                },
                {
                    "internalType": "uint256",
                    "name": "amount",
                    "type": "uint256"
                },
                {
                    "internalType": "string",
                    "name": "message",
                    "type": "string"
                },
                {
                    "internalType": "string",
                    "name": "keyword",
                    "type": "string"
                }
            ],
            "name": "addToBlockchain",
            "outputs": [],
            "stateMutability": "nonpayable",
            "type": "function"
        },
        {
            "inputs": [],
            "name": "getAllTransactions",
            "outputs": [
                {
                    "components": [
                        {
                            "internalType": "address",
                            "name": "sender",
                            "type": "address"
                        },
                        {
                            "internalType": "address",
                            "name": "receiver",
                            "type": "address"
                        },
                        {
                            "internalType": "uint256",
                            "name": "amount",
                            "type": "uint256"
                        },
                        {
                            "internalType": "string",
                            "name": "message",
                            "type": "string"
                        },
                        {
                            "internalType": "uint256",
                            "name": "timestamp",
                            "type": "uint256"
                        },
                        {
                            "internalType": "string",
                            "name": "keyword",
                            "type": "string"
                        }
                    ],
                    "internalType": "struct Transactions.TransferStruct[]",
                    "name": "",
                    "type": "tuple[]"
                }
            ],
            "stateMutability": "view",
            "type": "function"
        },
        {
            "inputs": [],
            "name": "getTransactionCount",
            "outputs": [
                {
                    "internalType": "uint256",
                    "name": "",
                    "type": "uint256"
                }
            ],
            "stateMutability": "view",
            "type": "function"
        }
    ],
    "bytecode": "0x608060405234801561001057600080fd5b50610c09806100206000396000f3fe608060405234801561001057600080fd5b50600436106100415760003560e01c806327506f53146100465780632e7700f014610064578063cc2d7ead14610082575b600080fd5b61004e61009e565b60405161005b91906108b5565b60405180910390f35b61006c6102e1565b60405161007991906108d7565b60405180910390f35b61009c600480360381019061009791906105dd565b6102e6565b005b60606001805480602002602001604051908101604052809291908181526020016000905b828210156102d857838290600052602060002090600602016040518060c00160405290816000820160009054906101000a900473ffffffffffffffffffffffffffffffffffffffff1673ffffffffffffffffffffffffffffffffffffffff1673ffffffffffffffffffffffffffffffffffffffff1681526020016001820160009054906101000a900473ffffffffffffffffffffffffffffffffffffffff1673ffffffffffffffffffffffffffffffffffffffff1673ffffffffffffffffffffffffffffffffffffffff168152602001600282015481526020016003820180546101ab90610ad5565b80601f01602080910402602001604051908101604052809291908181526020018280546101d790610ad5565b80156102245780601f106101f957610100808354040283529160200191610224565b820191906000526020600020905b81548152906001019060200180831161020757829003601f168201915b505050505081526020016004820154815260200160058201805461024790610ad5565b80601f016020809104026020016040519081016040528092919081815260200182805461027390610ad5565b80156102c05780601f10610295576101008083540402835291602001916102c0565b820191906000526020600020905b8154815290600101906020018083116102a357829003601f168201915b505050505081525050815260200190600101906100c2565b50505050905090565b600090565b60016000808282546102f891906109b9565b9250508190555060016040518060c001604052803373ffffffffffffffffffffffffffffffffffffffff1681526020018673ffffffffffffffffffffffffffffffffffffffff16815260200185815260200184815260200142815260200183815250908060018154018082558091505060019003906000526020600020906006020160009091909190915060008201518160000160006101000a81548173ffffffffffffffffffffffffffffffffffffffff021916908373ffffffffffffffffffffffffffffffffffffffff16021790555060208201518160010160006101000a81548173ffffffffffffffffffffffffffffffffffffffff021916908373ffffffffffffffffffffffffffffffffffffffff1602179055506040820151816002015560608201518160030190805190602001906104379291906104a8565b506080820151816004015560a082015181600501908051906020019061045e9291906104a8565b5050507f416cfa4330a4565f45c2fd2dd4826a83a37443aba2ce6f79477c7355afac35fa33858585428660405161049a96959493929190610846565b60405180910390a150505050565b8280546104b490610ad5565b90600052602060002090601f0160209004810192826104d6576000855561051d565b82601f106104ef57805160ff191683800117855561051d565b8280016001018555821561051d579182015b8281111561051c578251825591602001919060010190610501565b5b50905061052a919061052e565b5090565b5b8082111561054757600081600090555060010161052f565b5090565b600061055e61055984610923565b6108f2565b90508281526020810184848401111561057657600080fd5b610581848285610a93565b509392505050565b60008135905061059881610ba5565b92915050565b600082601f8301126105af57600080fd5b81356105bf84826020860161054b565b91505092915050565b6000813590506105d781610bbc565b92915050565b600080600080608085870312156105f357600080fd5b600061060187828801610589565b9450506020610612878288016105c8565b935050604085013567ffffffffffffffff81111561062f57600080fd5b61063b8782880161059e565b925050606085013567ffffffffffffffff81111561065857600080fd5b6106648782880161059e565b91505092959194509250565b600061067c8383610798565b905092915050565b61068d81610a5d565b82525050565b61069c81610a0f565b82525050565b6106ab81610a0f565b82525050565b60006106bc82610963565b6106c68185610986565b9350836020820285016106d885610953565b8060005b8581101561071457848403895281516106f58582610670565b945061070083610979565b925060208a019950506001810190506106dc565b50829750879550505050505092915050565b60006107318261096e565b61073b8185610997565b935061074b818560208601610aa2565b61075481610b94565b840191505092915050565b600061076a8261096e565b61077481856109a8565b9350610784818560208601610aa2565b61078d81610b94565b840191505092915050565b600060c0830160008301516107b06000860182610693565b5060208301516107c36020860182610693565b5060408301516107d66040860182610828565b50606083015184820360608601526107ee8282610726565b91505060808301516108036080860182610828565b5060a083015184820360a086015261081b8282610726565b9150508091505092915050565b61083181610a53565b82525050565b61084081610a53565b82525050565b600060c08201905061085b60008301896106a2565b6108686020830188610684565b6108756040830187610837565b8181036060830152610887818661075f565b90506108966080830185610837565b81810360a08301526108a8818461075f565b9050979650505050505050565b600060208201905081810360008301526108cf81846106b1565b905092915050565b60006020820190506108ec6000830184610837565b92915050565b6000604051905081810181811067ffffffffffffffff8211171561091957610918610b65565b5b8060405250919050565b600067ffffffffffffffff82111561093e5761093d610b65565b5b601f19601f8301169050602081019050919050565b6000819050602082019050919050565b600081519050919050565b600081519050919050565b6000602082019050919050565b600082825260208201905092915050565b600082825260208201905092915050565b600082825260208201905092915050565b60006109c482610a53565b91506109cf83610a53565b9250827fffffffffffffffffffffffffffffffffffffffffffffffffffffffffffffffff03821115610a0457610a03610b07565b5b828201905092915050565b6000610a1a82610a33565b9050919050565b6000610a2c82610a33565b9050919050565b600073ffffffffffffffffffffffffffffffffffffffff82169050919050565b6000819050919050565b6000610a6882610a6f565b9050919050565b6000610a7a82610a81565b9050919050565b6000610a8c82610a33565b9050919050565b82818337600083830152505050565b60005b83811015610ac0578082015181840152602081019050610aa5565b83811115610acf576000848401525b50505050565b60006002820490506001821680610aed57607f821691505b60208210811415610b0157610b00610b36565b5b50919050565b7f4e487b7100000000000000000000000000000000000000000000000000000000600052601160045260246000fd5b7f4e487b7100000000000000000000000000000000000000000000000000000000600052602260045260246000fd5b7f4e487b7100000000000000000000000000000000000000000000000000000000600052604160045260246000fd5b6000601f19601f8301169050919050565b610bae81610a21565b8114610bb957600080fd5b50565b610bc581610a53565b8114610bd057600080fd5b5056fea264697066735822122023877f8c198cbc70549a31b5ad78eca2812957308102ccd5ea1258389b78b6d164736f6c63430008000033",
    "linkReferences": {},
    "deployedLinkReferences": {}
}